:020000040800F2
:10000000200500205D010008650100086701000867
:1000100000000000000000000000000000000000E0
:10002000000000000000000000000000690100085E
:1000300000000000000000006B0100081103000830
:100040006F010008000000006F0100086F01000848
:100050006F0100086F010008E50200086F01000849
:10006000000000006F0100086F0100086F01000828
:100070006F0100086F0100086F0100080000000018
:10008000FB02000800000000000000006F010008F3
:100090006F0100086F0100086F0100086F01000880
:1000A0006F0100086F0100086F0100086F01000870
:1000B0006F01000800F002F800F040F80CA030C812
:1000C000083824182D18A246671EAB4654465D46D4
:1000D000AC4201D100F032F87E460F3E0FCCB6465E
:1000E0000126334200D0FB1AA246AB4633431847E1
:1000F000C8100000E8100000103A02D378C878C198
:10010000FAD8520701D330C830C101D504680C6059
:10011000704700000023002400250026103A01D378
:1001200078C1FBD8520700D330C100D50B607047AF
:100130001FB5C046C0461FBD10B510BD01F009F87F
:100140001146FFF7F5FF00F023F901F021F803B4A1
:10015000FFF7F2FF03BC01F025F8000007488047D5
:1001600007480047FEE7FEE7FEE7FEE7FEE7FEE79B
:1001700004480549034A054B7047000091010008F7
:10018000B5000008200100202005002020010020EB
:1001900030B44C4882B001680124214301604168B9
:1001A000494A114041600168484A114001600168B4
:1001B000A2049143016041683F22120491434160CF
:1001C000C16A09090901C162016BFF2254329143DE
:1001D0000163416BA143416300238360009301935A
:1001E0000168220411430160520005252D030168B6
:1001F000114001910099491C00910199002902D1F7
:100200000099A942F3D10168890329D5304A112107
:1002100001941160416841604168416041687F22FA
:10022000D20391434160416813221204114341609B
:100230000168012212061143016001688901FCD5A1
:100240004168890889004160416802221143416088
:1002500041680907890F0229FAD102B030BC704702
:10026000019302B030BC704770B5164E71680C2017
:1002700001401848184D03D0042901D0082901D0A5
:10028000286011E07268716803239202DB03140F87
:100290001940A41C002910D0F16A0907090F491C54
:1002A00000F060FE6043286070680C490006000F93
:1002B000085C2968C140296070BD094844432C602E
:1002C000F2E70000001002400CB8FF08FFFFF6FE46
:1002D0000020024000127A000000002004000020EC
:1002E00000093D0070B5C24D68690024400702D581
:1002F000042400F0CFFA6C6170BD70B5BD4D2C8A3E
:10030000E00703D000F0CAFA640864002C8270BDD4
:10031000B9480069C00303D5B8484168491C416029
:10032000704770B4B64B00241C82002813D0B54E21
:10033000350C0121A84202D95C62801902E0281A1A
:10034000586200201A880A431A801A8AD207FCD001
:100350001C820028EED170BC7047AB4910B54843F1
:100360007D21090200F0FEFDA949A84A0A60A94AB8
:100370000A6003224A600005000D8860C8680028F2
:10038000FCD1A548086010BDA149A348086070478A
:100390009F4F9E4838609F48386003207860FA205D
:1003A000B860F8680028FCD19B48386000F071F80C
:1003B00000F0A6FD904C994860610321081F00F0F1
:1003C0004AF80025A56107202061954CC0072060F0
:1003D0002946062000F03FF840202060012110202F
:1003E00000F039F8012000042060854A8D4815820C
:1003F0008D4B5E42012404E0984202D95562801977
:1004000002E0181A50620020118821431180118ADD
:10041000C907FCD015820028EED100F099F97E4F73
:10042000754E7B480760754A5068002811D01470DB
:100430003169022081433161BFF34F8FBFF36F8F6A
:100440005168491E516031690143316100F0BFF9C3
:10045000E7E71570FAE78307FF22DB0E9A4089076A
:10046000090E994000280BDA0007000F08388308AE
:100470006E489B001818C36993430B43C3617047D0
:1004800083086B489B001818036893430B43036071
:100490007047F0B4674F78690321490408437861D5
:1004A0000920C0060168644A114001600168634A7E
:1004B000114301608168624A11438160C168614AE9
:1004C0001143C160016A0903090B0162016A0162FB
:1004D000416AFF22120191434162416A1122520195
:1004E00011434162584802680C218A430260026845
:1004F00008231A43026082680A438260016AF0227C
:1005000091430162016A016250488168120191437E
:100510008160816881603648C26804210A43C260F4
:1005200002680A4302603846C069890108433946B7
:10053000C861474B17261E8147484649C162474C50
:100540004463018B682529430183198801221143E3
:1005500019800188114301808282018AC907FCD079
:1005600000210182B8690123DB021843B8613C4BCA
:100570001E813D483B4EC6628463C4630D24E40281
:1005800004838583FF2411341C800123374CDB0353
:10059000A3800388134303808282038ADB07FCD095
:1005A0000182F86902231843F86131482F2505813B
:1005B00010481D4CC4624462102303808282038A67
:1005C000DB07FCD001828281B86901235B041843F8
:1005D000B861284805810A48C46241620823038043
:1005E0008282028AD207FCD00182F0BC70470000F0
:1005F000000401400004004000E000E0140000207E
:10060000004401400100FFFF409C0000CCCC0000F2
:100610000030004055550000AAAA0000FF52070014
:1006200000E100E0204E0000FFFF000000ED00E0D0
:1006300000E400E0001002400000C3FF45A82800CD
:10064000CFCC3C0010110000000400480000014025
:10065000202000400F27000000200040B80B0000C1
:10066000202C01403F9C0000002C0140402C014008
:10067000200400402044014010B41921304B0C22CA
:100680001C8804709B1C401C491E03D0240A047063
:10069000401C491E1446521E92B2002CF0D110BCD0
:1006A0007047F0B4274F1921FA68D207FCD13A6994
:1006B000120603D5244A7A60244A7A60204B3A69AC
:1006C000022422433A617B613A6940252A433A6118
:1006D000FA68D207FCD1FA6895062022002D02DACA
:1006E000FD681543FD603D69A5433D614C1C6508EF
:1006F0006C1E002D1ED001260278401C491E04D01D
:100700000578401C2D022A43491E3D6935433D6151
:100710001A809B1CFA68D207FCD1FA68920603D5AE
:10072000FA6820252A43FA603A69520852003A6171
:10073000641EE1D23869802108433861F0BC7047FB
:10074000003C00080020024023016745AB89EFCD43
:1007500070B5F748FFF790FFF64AF54900200B5CAB
:100760001354401C0528FADBF34A00200B185B7970
:100770001354401C1428F9DB0025F04C402025724E
:100780006062EF49EF4A28464300401CD1520328DB
:10079000FADB00F071FA00F082FA00F086FB02202A
:1007A00000F006FB402000F0EFFA002000F036FBDE
:1007B0000021012000F010FB052000F01AFB0A21A7
:1007C000012000F03EFB00F06DF8A56170BDF8B5AA
:1007D000DD48DA4D0178002913D0686A002801D07D
:1007E000401E6862286B002801D0401E2863286ADA
:1007F000002801D0401E2862E869002801D0401E70
:10080000E86101270926FF040124F606002913D018
:10081000308A6979C043C006C00F002903D0296A15
:10082000002900D1B761A979884205D0A8710028B4
:100830000ED000206871EC7000F054F800F007F959
:10084000E879082100280DD0E869002805D009E0E2
:10085000FF202D3028626C71EEE76869E861B08A8C
:100860004840B0822A69A86990420AD02861B761DD
:10087000012807D0022801D0032807D02020686172
:10088000EC71F8BDB1610020E871F8BD0520686128
:10089000EC71F8BDA949012048707047A7490120B3
:1008A0008870704770B5A9480188490849000180DF
:1008B000A24D0024AC7000F0F2F9EC62AC62AC70B6
:1008C0009C4A0521012000F0F0F99B48007800F0D7
:1008D00014FA00F049FA402000F063FA6C7000F05E
:1008E000D5F970BDF8B5954D032728790124002668
:1008F00000280BD0286B002879D0687800281BD0FE
:100900006E7000F001FA002817D01EE0E878002889
:1009100012D0EE70AF612C71FF20F530EE602863CD
:1009200000F0BDF98A4A0521002000F0BEF95120EF
:1009300000F0E3F900F0AAF9F8BD0A21854800F0BB
:10094000FCF900F0E1F90028F7D0402000F029FA86
:10095000E8688049764A002807D001281BD0022881
:100960002FD0032844D0EE60F8BD0878FF28FBD1D3
:100970004878AA28F8D188785528F5D16E810020CA
:100980000B18DB7813546E89401CF3186B81052813
:10099000F6DBEC60F8BD68890B78C4B2A342F9D1EC
:1009A0004B78000A8342F5D188780028F2D10B18E1
:1009B0001418DB78401C63710728F8DB0220E8601C
:1009C000F8BD68890B78C4B2A342F9D14B78000A0C
:1009D0008342F5D188780128F2D100200B18141831
:1009E000DB78401C23730728F8DBEF60F8BD26E0B6
:1009F00068890B78C4B2A342F8D14B78000A8342CD
:100A0000F4D188780228F1D100200B181718DB7870
:100A1000401C1446FB740628F7DB4548FFF741FEEF
:100A200044490020225C0A54401C0528FADB424954
:100A30000020221852790A54401C1428F9DB402067
:100A4000AE6168622E71EE70FFF72CFFF8BDF8B54D
:100A50003A4D2879002869D128783A4F002816D0D5
:100A6000686A002813D13C4B41007A5A401C5A5204
:100A70000328F9DB18884100384841635888410051
:100A80003748C1639988490081630220A861A8782A
:100A90000024002816D0AC70A86A401CA8620F2859
:100AA00002D9FFF7FFFE0DE000F0F9F8E86A142123
:100AB000401C00F057FA2048E962405C00F01DF944
:100AC00000F0E4F86878002830D06C7000F01CF971
:100AD000002807D10A211F4800F02FF900F014F96F
:100AE0000028F7D0402000F05CF918481D49C16289
:100AF000491041620188012631430180AC622346DE
:100B0000AC70144C1848E2791849552A30D0AA2AFA
:100B10000CD1227A5A2A75D02B724020686208497B
:100B200000204200401CB9520328FADBF8BD000047
:100B300084000020500000206E0000201C000020D7
:100B4000DC0500005C0000201400002000040040D0
:100B5000B211000864000020560000200020004070
:100B6000002C014087130000FFFF00000406000076
:100B7000627823781202D218394892B2801A4B2236
:100B800012015043374900F0EDF92A38364980B256
:100B900008800090E078A17800024018304980B2C7
:100BA000081A4B21090148432E4900F0DBF92A3885
:100BB00087B22D4847806079217900024018284982
:100BC00080B2081A4B2109014843264900F0CAF9AE
:100BD0002A3881B224488180009842002348426329
:100BE00023487A00C263490081632878002803D132
:100BF00020480188314301802E704020AE61686238
:100C0000F8BDFFE72E72627823781202D21892B2F2
:100C10000546801A4B22120150430E4600F0A2F9FD
:100C20002A383880E078A1780002401880B24B2141
:100C3000281A09014843314600F094F92A3878808F
:100C4000607921790002401880B24B21281A0901ED
:100C50004843314600F086F92A38B880F8BD0000D4
:100C6000FFFF0000040600005600002000200040A6
:100C7000002C0140000400407047704710B59E49A9
:100C8000FF200870012000F04AF910BD10B50220C5
:100C90000921C90688610420FFF743FB10BD01202C
:100CA00040040921C9068861704770B500230125F9
:100CB0002C469C40844201D1D8B203E05B1C062B39
:100CC000F6DB0020022800D301210A30C3B2084617
:100CD00020210B43202800D9202087490B700023B6
:100CE000002805DDD45CCD185B1C6C708342F9DBF9
:100CF0008149401C00F013F970BD410610B5490E42
:100D0000052000F0EEF810BD10B57B49FF200870FB
:100D1000012000F004F9C0430007400F01D000207B
:100D200010BD012010BD10B57349FF2008700120CF
:100D300000F0F5F8C007C00F10BD70B56122CCB24D
:100D40000546202C00D920246B4E601C32703146A1
:100D500000F0E5F80021002C05DD7018407868549B
:100D6000491CA142F9DB70BD10B56349E22008704F
:100D7000012000F0D4F810BD10B55F49E1200870E3
:100D8000012000F0CCF810BD10B50446002000F0A2
:100D90009DF870210843A0430146002000F0A1F80F
:100DA00010BD702110B50140072000F09AF810BD69
:100DB00010B50446002000F089F8F3210140012C11
:100DC00002D0022C02D003E0082000E00C200143F6
:100DD000002000F086F810BD10B50C468106890E83
:100DE000022000F07EF8A106890E012000F079F8BB
:100DF00010BD10B5032801D2032002E0052800D958
:100E00000520801EC1B2032000F06BF810BD10B5A4
:100E1000032000F05BF8801CC0B210BD10B5044682
:100E2000062000F053F806210140002C07D0012CC9
:100E300001D008200143062000F053F810BD202007
:100E4000F8E7F8B500240D46064601273846A040CD
:100E5000304209D02046113020210843264908702D
:100E60004D70022000F05BF8641C062CEEDBF8BD30
:100E700010B5002000F02AF8FD210140002000F00C
:100E800030F810BD10B5002000F020F88107CC0F1D
:100E90000221084341084900002000F022F8002CFC
:100EA00002D11648FFF73DFA10BD10B5002000F042
:100EB0000DF88107CC0F03210143002000F011F849
:100EC000002C02D10D48FFF72CFA10BD10B50A4CCA
:100ED0002070002060702146022000F020F8607829
:100EE00010BD2022104310B5034A107051701146F6
:100EF000022000F014F810BD9D00002094110000A5
:100F000016488169821411438161154800210180CE
:100F1000172109028180D32189000180704730B4F4
:100F2000012212040925ED06AA610D4B0A46401E56
:100F30000CD31C89A407FCD514781C731C89E40706
:100F4000FCD09C891470521C401EF2D218890006F5
:100F5000FCD40120A861087830BC70470010024022
:100F600000300140002203098B4273D3030A8B42F5
:100F700058D3030B8B423CD3030C8B4221D312E09A
:100F800003460B437FD4002243088B4274D30309EA
:100F90008B425FD3030A8B4244D3030B8B4228D38B
:100FA000030C8B420DD3FF22090212BA030C8B42B1
:100FB00002D31212090265D0030B8B4219D300E051
:100FC000090AC30B8B4201D3CB03C01A5241830BD6
:100FD0008B4201D38B03C01A5241430B8B4201D386
:100FE0004B03C01A5241030B8B4201D30B03C01AAF
:100FF0005241C30A8B4201D3CB02C01A5241830A29
:101000008B4201D38B02C01A5241430A8B4201D357
:101010004B02C01A5241030A8B4201D30B02C01A81
:101020005241CDD2C3098B4201D3CB01C01A5241E8
:1010300083098B4201D38B01C01A524143098B4271
:1010400001D34B01C01A524103098B4201D30B015A
:10105000C01A5241C3088B4201D3CB00C01A52417F
:1010600083088B4201D38B00C01A524143088B4244
:1010700001D34B00C01A5241411A00D201465241DD
:10108000104670475DE0CA0F00D04942031000D3FC
:101090004042534000229C4603098B422DD3030A51
:1010A0008B4212D3FC22890112BA030A8B420CD361
:1010B000890192118B4208D3890192118B4204D38A
:1010C00089013AD0921100E08909C3098B4201D30A
:1010D000CB01C01A524183098B4201D38B01C01A44
:1010E000524143098B4201D34B01C01A52410309BB
:1010F0008B4201D30B01C01A5241C3088B4201D36A
:10110000CB00C01A524183088B4201D38B00C01A16
:101110005241D9D243088B4201D34B00C01A5241ED
:10112000411A00D20146634652415B10104601D37A
:101130004042002B00D54942704763465B1000D304
:10114000404201B50020C046C04602BD704770470E
:101150007047754600F022F8AE46050069465346D2
:10116000C008C000854618B020B5FFF701F860BC84
:1011700000274908B6460026C0C5C0C5C0C5C0C5C1
:10118000C0C5C0C5C0C5C0C5403D49008D467047FB
:101190000446C046C0462046FEF7D9FF00487047C7
:1011A000C000002001491820ABBEFEE72600020067
:1011B0007047122323457800D81100080000002052
:1011C00064000000F80000083C12000864000020E1
:1011D000BC04000014010008002D310100000000D3
:1011E00000000000010203040607080900000000D7
:1011F00000000000000000000000010000000000EE
:1012000000000000FFFFFFFF0000000000000000E2
:1012100000000000000000000000000000000000CE
:1012200000000000000000000000000000000000BE
:0C123000000000000000000000000000B2
:04000005080000B53A
:00000001FF
