:020000040800F2
:10000000200500205D010008650100086701000867
:1000100000000000000000000000000000000000E0
:10002000000000000000000000000000690100085E
:1000300000000000000000006B0100081103000830
:100040006F010008000000006F0100086F01000848
:100050006F0100086F010008E50200086F01000849
:10006000000000006F0100086F0100086F01000828
:100070006F0100086F0100086F0100080000000018
:10008000FB02000800000000000000006F010008F3
:100090006F0100086F0100086F0100086F01000880
:1000A0006F0100086F0100086F0100086F01000870
:1000B0006F01000800F002F800F040F80CA030C812
:1000C000083824182D18A246671EAB4654465D46D4
:1000D000AC4201D100F032F87E460F3E0FCCB6465E
:1000E0000126334200D0FB1AA246AB4633431847E1
:1000F0001010000030100000103A02D378C878C108
:10010000FAD8520701D330C830C101D504680C6059
:10011000704700000023002400250026103A01D378
:1001200078C1FBD8520700D330C100D50B607047AF
:100130001FB5C046C0461FBD10B510BD00F0ADFFD5
:100140001146FFF7F5FF00F008F900F0C5FF03B412
:10015000FFF7F2FF03BC00F0C9FF0000074880472B
:1001600007480047FEE7FEE7FEE7FEE7FEE7FEE79B
:1001700004480549034A054B7047000091010008F7
:10018000B5000008200100202005002020010020EB
:1001900030B44C4882B001680124214301604168B9
:1001A000494A114041600168484A114001600168B4
:1001B000A2049143016041683F22120491434160CF
:1001C000C16A09090901C162016BFF2254329143DE
:1001D0000163416BA143416300238360009301935A
:1001E0000168220411430160520005252D030168B6
:1001F000114001910099491C00910199002902D1F7
:100200000099A942F3D10168890329D5304A112107
:1002100001941160416841604168416041687F22FA
:10022000D20391434160416813221204114341609B
:100230000168012212061143016001688901FCD5A1
:100240004168890889004160416802221143416088
:1002500041680907890F0229FAD102B030BC704702
:10026000019302B030BC704770B5164E71680C2017
:1002700001401848184D03D0042901D0082901D0A5
:10028000286011E07268716803239202DB03140F87
:100290001940A41C002910D0F16A0907090F491C54
:1002A00000F004FE6043286070680C490006000FEF
:1002B000085C2968C140296070BD094844432C602E
:1002C000F2E70000001002400CB8FF08FFFFF6FE46
:1002D0000020024000127A000000002004000020EC
:1002E00000093D0070B5AB4D68690024400702D598
:1002F000042400F097FA6C6170BD70B5A64D2C8A8D
:10030000E00703D000F092FA640864002C8270BD0C
:10031000A2480069C00303D5A1484168491C416057
:10032000704770B49F4B00241C82002813D09E4E4F
:10033000350C0121A84202D95C62801902E0281A1A
:10034000586200201A880A431A801A8AD207FCD001
:100350001C820028EED170BC704700F06DF800F0F0
:1003600073FD8E4F914878610321081F00F046F815
:100370000025BD610720386101248D4EC007306023
:100380002946062000F03AF8402030600121102074
:1003900000F034F820043060824A86481582864B8B
:1003A0005E4204E0984202D95562801902E0181AB0
:1003B00050620020118821431180118AC907FCD0A6
:1003C00015820028EED100F08BF9754D0226686881
:1003D000002810D02C703869B0433861BFF34F8FBC
:1003E000BFF36F8F6868401E6860386930433861BA
:1003F00000F0B5F9EBE700202870F9E78307FF224A
:10040000DB0E9A408907090E994000280BDA000795
:10041000000F0838830869489B001818C369934384
:100420000B43C3617047830865489B001818036835
:1004300093430B4303607047F0B4624F7869032124
:100440004904084378610920C00601685E4A1140EA
:10045000016001685D4A1143016081685C4A114393
:100460008160C1685B4A1143C160016A0903090BDD
:100470000162016A0162416AFF22120191434162F5
:10048000416A1122520111434162534802680C2112
:100490008A430260026808231A43026082680A43A2
:1004A0008260016AF02291430162016A01624B4855
:1004B0008168120191438160816881603548C2681A
:1004C00004210A43C26002680A4302603846C069D8
:1004D000890108433946C861414B17261E814248AD
:1004E0004049C162414C4463018B68252943018323
:1004F00019880122114319800188114301808282E9
:10050000018AC907FCD000210182B8690123DB02FE
:100510001843B861364B1E813748364EC662846335
:10052000C4630D24E40204838583FF2411341C80FA
:100530000123324CDB03A3800388134303808282B0
:10054000038ADB07FCD00182F86902231843F861B3
:100550002B482F2505811048174CC4624462102394
:1005600003808282038ADB07FCD001828281B86922
:1005700001235B041843B861224805810948C4621D
:100580004162082303808282028AD207FCD0018262
:10059000F0BC7047000401400004004000E000E0AF
:1005A00014000020004401400100FFFFFF5207003B
:1005B00000E100E0204E0000FFFF000000ED00E041
:1005C00000E400E0001002400000C3FF45A828003E
:1005D000CFCC3C0010110000000400480000014096
:1005E000202000400F27000000200040B80B000032
:1005F000202C01403F9C0000002C0140402C014079
:10060000200400402044014010B41921304B0C223A
:100610001C8804709B1C401C491E03D0240A0470D3
:10062000401C491E1446521E92B2002CF0D110BC40
:100630007047F0B4274F1921FA68D207FCD13A6904
:10064000120603D5244A7A60244A7A60204B3A691C
:10065000022422433A617B613A6940252A433A6188
:10066000FA68D207FCD1FA6895062022002D02DA3A
:10067000FD681543FD603D69A5433D614C1C65085F
:100680006C1E002D1ED001260278401C491E04D08D
:100690000578401C2D022A43491E3D6935433D61C2
:1006A0001A809B1CFA68D207FCD1FA68920603D51F
:1006B000FA6820252A43FA603A69520852003A61E2
:1006C000641EE1D23869802108433861F0BC70476C
:1006D000003C00080020024023016745AB89EFCDB4
:1006E00070B5FE48FFF790FFFD4AFC4900200B5C07
:1006F0001354401C0528FADBFA4A00200B185B79DA
:100700001354401C1428F9DB0025F74C40202572B7
:100710006062F649F64A28464300401CD15203283D
:10072000FADB00F04DFA00F05EFA00F062FB022006
:1007300000F0E2FA402000F0CBFA002000F012FBBB
:100740000021012000F0ECFA052000F0F6FA0A2161
:10075000012000F01AFB00F06DF8A56170BDF8B53E
:10076000E448E14D0178002913D0686A002801D0DF
:10077000401E6862286B002801D0401E2863286A4A
:10078000002801D0401E2862E869002801D0401EE0
:10079000E86101270926FF040124F606002913D089
:1007A000308A6979C043C006C00F002903D0296A86
:1007B000002900D1B761A979884205D0A871002825
:1007C0000ED000206871EC7000F054F800F007F9CA
:1007D000E879082100280DD0E869002805D009E053
:1007E000FF202D3028626C71EEE76869E861B08AFD
:1007F0004840B0822A69A86990420AD02861B7614E
:10080000012807D0022801D0032807D020206861E2
:10081000EC71F8BDB1610020E871F8BD0520686198
:10082000EC71F8BDB049012048707047AE49012015
:100830008870704770B5B048018849084900018048
:10084000A94D0024AC7000F0CEF9EC62AC62AC7043
:10085000A34A0521012000F0CCF9A248007800F05D
:10086000F0F900F025FA402000F03FFA6C7000F03B
:10087000B1F970BDF8B59C4D0327287901240026F5
:1008800000280BD0286B002879D0687800281BD06E
:100890006E7000F0DDF9002817D01EE0E87800281F
:1008A00012D0EE70AF612C71FF20F530EE6028633E
:1008B00000F099F9914A0521002000F09AF95120A1
:1008C00000F0BFF900F086F9F8BD0A218C4800F06D
:1008D000D8F900F0BDF90028F7D0402000F005FA63
:1008E000E86887497D4A002807D001281BD00228E4
:1008F0002FD0032844D0EE60F8BD0878FF28FBD144
:100900004878AA28F8D188785528F5D16E8100203A
:100910000B18DB7813546E89401CF3186B81052883
:10092000F6DBEC60F8BD68890B78C4B2A342F9D15C
:100930004B78000A8342F5D188780028F2D10B1851
:100940001418DB78401C63710728F8DB0220E8608C
:10095000F8BD68890B78C4B2A342F9D14B78000A7C
:100960008342F5D188780128F2D100200B181418A1
:10097000DB78401C23730728F8DBEF60F8BD26E026
:1009800068890B78C4B2A342F8D14B78000A83423D
:10099000F4D188780228F1D100200B181718DB78E1
:1009A000401C1446FB740628F7DB4C48FFF741FE59
:1009B0004B490020225C0A54401C0528FADB4949B7
:1009C0000020221852790A54401C1428F9DB4020D8
:1009D000AE6168622E71EE70FFF72CFFF8BDF8B5BE
:1009E000414D2879002867D12878414F002816D03A
:1009F000686A002813D1434B41007A5A401C5A526E
:100A00000328F9DB188841003F48416358884100BA
:100A10003E48C1639988490081630220A861A87893
:100A20000024002816D0AC70A86A401CA8620F28C9
:100A300002D9FFF7FFFE0DE000F0D5F8E86A1421B7
:100A4000401C00F033FA2748E962405C00F0F9F8F6
:100A500000F0C0F8687800282ED06C7000F0F8F82C
:100A6000002807D10A21264800F00BF900F0F0F821
:100A70000028F7D0402000F038F91F482449C1620F
:100A8000491041620188012631430180AC62214650
:100A9000AC701B4CE07955280FD0AA280CD1207AD5
:100AA0005A2856D02972402068621049002042001E
:100AB000401CB9520328FADBF8BD607821780002A7
:100AC000401880B200F05FF80E4F3880E078A178CF
:100AD0000002401880B200F056F81BE084000020AD
:100AE000500000206E0000201C000020DC050000EB
:100AF0005C0000201400002000040040FA100008F0
:100B0000640000205600002000200040002C01401E
:100B1000871300007880607921790002401880B244
:100B200000F031F8B88039884A001F494A63798853
:100B30004A001E49CA63400088632878002803D110
:100B40001B480188314301802E704020AE616862ED
:100B5000F8BD2E72607821780002401880B200F053
:100B600012F83880E078A1780002401880B200F0D6
:100B70000AF87880607921790002401880B200F08C
:100B800002F8B880F8BD0B4910B5081A0A49401898
:100B90004B2109014843094900F088F9E121890006
:100BA000401880B210BD000000200040002C014021
:100BB00000040040FFFF000046FBFFFF04060000AA
:100BC0007047704710B59E49FF200870012000F063
:100BD0004AF910BD10B502200921C9068861042018
:100BE000FFF79FFB10BD012040040921C906886161
:100BF000704770B5002301252C469C40844201D1EA
:100C0000D8B203E05B1C062BF6DB0020022800D3E1
:100C100001210A30C3B2084620210B43202800D905
:100C2000202087490B700023002805DDD45CCD18F7
:100C30005B1C6C708342F9DB8149401C00F013F9A6
:100C400070BD410610B5490E052000F0EEF810BD4C
:100C500010B57B49FF200870012000F004F9C04363
:100C60000007400F01D0002010BD012010BD10B5BD
:100C70007349FF200870012000F0F5F8C007C00F8D
:100C800010BD70B56122CCB20546202C00D92024BD
:100C90006B4E601C3270314600F0E5F80021002CEC
:100CA00005DD701840786854491CA142F9DB70BD1D
:100CB00010B56349E2200870012000F0D4F810BD9F
:100CC00010B55F49E1200870012000F0CCF810BD9C
:100CD00010B50446002000F09DF870210843A043A1
:100CE0000146002000F0A1F810BD702110B50140B0
:100CF000072000F09AF810BD10B50446002000F05F
:100D000089F8F3210140012C02D0022C02D003E02B
:100D1000082000E00C200143002000F086F810BD00
:100D200010B50C468106890E022000F07EF8A1065F
:100D3000890E012000F079F810BD10B5032801D20A
:100D4000032002E0052800D90520801EC1B203203F
:100D500000F06BF810BD10B5032000F05BF8801CAC
:100D6000C0B210BD10B50446062000F053F80621AD
:100D70000140002C07D0012C01D00820014306209F
:100D800000F053F810BD2020F8E7F8B500240D4618
:100D9000064601273846A040304209D0204611308F
:100DA00020210843264908704D70022000F05BF8AE
:100DB000641C062CEEDBF8BD10B5002000F02AF80C
:100DC000FD210140002000F030F810BD10B50020DA
:100DD00000F020F88107CC0F0221084341084900A8
:100DE000002000F022F8002C02D11648FFF799FAF3
:100DF00010BD10B5002000F00DF88107CC0F0321C5
:100E00000143002000F011F8002C02D10D48FFF73B
:100E100088FA10BD10B50A4C207000206070214681
:100E2000022000F020F8607810BD2022104310B599
:100E3000034A107051701146022000F014F810BDE2
:100E40009D0000209411000016488169821411430E
:100E50008161154800210180172109028180D32179
:100E600089000180704730B4012212040925ED0683
:100E7000AA610D4B0A46401E0CD31C89A407FCD561
:100E800014781C731C89E407FCD09C891470521CD4
:100E9000401EF2D218890006FCD40120A86108780F
:100EA00030BC7047001002400030014000220309AE
:100EB0008B4273D3030A8B4258D3030B8B423CD330
:100EC000030C8B4221D312E003460B437FD4002254
:100ED00043088B4274D303098B425FD3030A8B42CE
:100EE00044D3030B8B4228D3030C8B420DD3FF2238
:100EF000090212BA030C8B4202D31212090265D006
:100F0000030B8B4219D300E0090AC30B8B4201D3B8
:100F1000CB03C01A5241830B8B4201D38B03C01AFF
:100F20005241430B8B4201D34B03C01A5241030B76
:100F30008B4201D30B03C01A5241C30A8B4201D327
:100F4000CB02C01A5241830A8B4201D38B02C01AD2
:100F50005241430A8B4201D34B02C01A5241030A49
:100F60008B4201D30B02C01A5241CDD2C3098B422E
:100F700001D3CB01C01A524183098B4201D38B01AB
:100F8000C01A524143098B4201D34B01C01A52414E
:100F900003098B4201D30B01C01A5241C3088B4293
:100FA00001D3CB00C01A524183088B4201D38B007E
:100FB000C01A524143088B4201D34B00C01A524120
:100FC000411A00D201465241104670475DE0CA0FF7
:100FD00000D04942031000D34042534000229C46B7
:100FE00003098B422DD3030A8B4212D3FC228901C1
:100FF00012BA030A8B420CD3890192118B4208D397
:10100000890192118B4204D389013AD0921100E0F8
:101010008909C3098B4201D3CB01C01A524183090C
:101020008B4201D38B01C01A524143098B4201D339
:101030004B01C01A524103098B4201D30B01C01A64
:101040005241C3088B4201D3CB00C01A52418308DE
:101050008B4201D38B00C01A5241D9D243088B4234
:1010600001D34B00C01A5241411A00D201466346D7
:1010700052415B10104601D34042002B00D549423B
:10108000704763465B1000D3404201B50020C04664
:10109000C04602BD704770477047754600F022F8A1
:1010A000AE46050069465346C008C000854618B0E4
:1010B00020B5FFF75DF860BC00274908B64600265A
:1010C000C0C5C0C5C0C5C0C5C0C5C0C5C0C5C0C5F8
:1010D000403D49008D4670470446C046C046204604
:1010E000FFF735F800487047C0000020014918207C
:1010F000ABBEFEE7260002007047122323457800AE
:10110000201100080000002064000000F800000822
:101110008411000864000020BC04000014010008D1
:10112000002D310100000000000000000102030456
:101130000607080900000000000000000000000091
:10114000000001000000000000000000FFFFFFFFA2
:10115000000000000000000000000000000000008F
:10116000000000000000000000000000000000007F
:10117000000000000000000000000000000000006F
:04118000000000006B
:04000005080000B53A
:00000001FF
